:100000000C9434000C9446000C9446000C9446006A
:100010000C9446000C9446000C9446000C94460048
:100020000C9446000C9446000C9446000C94460038
:100030000C9446000C9446000C9446000C94460028
:100040000C9446000C9446000C9446000C94460018
:100050000C9446000C9446000C9446000C94460008
:100060000C9446000C94460011241FBECFEFD8E03C
:10007000DEBFCDBF21E0A0E0B1E001C01D92A43001
:10008000B207E1F70E945A000C94EE020C940000B3
:1000900082E480937C0085E880937A000895E0E80C
:1000A000F0E0808182688083E1E8F0E080818A610D
:1000B000808308950E94480082E084B980E49CE92E
:1000C000909387008093860088EE93E09093890058
:1000D000809388000E944F00CAE7D0E00F2EF8E717
:1000E000EF2EF12CF02D08E810E010920001109294
:1000F00001011092020110920301888180648883BB
:10010000888186FDFDCFF7016081718180E090E0FC
:100110000E94F3016093000170930101809302013A
:10012000909303016091000170910101809102019F
:100130009091030120E030E040EA50E40E94810207
:1001400020E030E040E85AE30E9481026093000121
:10015000709301018093020190930301609100016B
:1001600070910101809102019091030120E030E043
:1001700040EA50E40E944B0120E030E041E655E4C3
:100180000E9481026093000170930101809302013B
:10019000909303016091000170910101809102012F
:1001A0009091030120E030E04AE754E40E94DF0030
:1001B0000E94BD01F8017183608397CF5058BB271F
:1001C000AA270E94F6000C9447020E94390238F0D8
:1001D0000E94400220F039F49F3F19F426F40C9459
:1001E00036020EF4E095E7FB0C943002E92F0E94F2
:1001F000580258F3BA17620773078407950720F06F
:1002000079F4A6F50C947A020EF4E0950B2EBA2F31
:10021000A02D0B01B90190010C01CA01A00111240C
:10022000FF27591B99F0593F50F4503E68F11A16B8
:10023000F040A22F232F342F4427585FF3CF469549
:1002400037952795A795F0405395C9F77EF41F166B
:10025000BA0B620B730B840BBAF09150A1F0FF0F35
:10026000BB1F661F771F881FC2F70EC0BA0F621F21
:10027000731F841F48F4879577956795B795F79511
:100280009E3F08F0B0CF9395880F08F09927EE0FA6
:100290009795879508950E945F010C9447020E94EC
:1002A000400258F00E94390240F029F45F3F29F0E3
:1002B0000C94300251110C947B020C9436020E9473
:1002C000580268F39923B1F3552391F3951B550B0D
:1002D000BB27AA2762177307840738F09F5F5F4F19
:1002E000220F331F441FAA1FA9F335D00E2E3AF058
:1002F000E0E832D091505040E695001CCAF72BD070
:10030000FE2F29D0660F771F881FBB1F26173707C0
:100310004807AB07B0E809F0BB0B802DBF01FF27F2
:1003200093585F4F3AF09E3F510578F00C9430029D
:100330000C947B025F3FE4F3983ED4F38695779567
:100340006795B795F7959F5FC9F7880F911D9695AB
:10035000879597F90895E1E0660F771F881FBB1F07
:10036000621773078407BA0720F0621B730B840BB4
:10037000BA0BEE1F88F7E09508950E94C4016894B7
:10038000B1110C947B0208950E94600288F09F577F
:1003900098F0B92F9927B751B0F0E1F0660F771FA9
:1003A000881F991F1AF0BA95C9F714C0B13091F09F
:1003B0000E947A02B1E008950C947A02672F782F98
:1003C0008827B85F39F0B93FCCF386957795679564
:1003D000B395D9F73EF490958095709561957F4FD0
:1003E0008F4F9F4F0895E89409C097FB3EF4909576
:1003F0008095709561957F4F8F4F9F4F9923A9F0FE
:10040000F92F96E9BB279395F6958795779567958C
:10041000B795F111F8CFFAF4BB0F11F460FF1BC0D0
:100420006F5F7F4F8F4F9F4F16C0882311F096E963
:1004300011C0772321F09EE8872F762F05C0662311
:1004400071F096E8862F70E060E02AF09A95660FCA
:10045000771F881FDAF7880F9695879597F9089583
:1004600097F99F6780E870E060E008959FEF80EC67
:10047000089500240A94161617061806090608950A
:1004800000240A9412161306140605060895092E70
:100490000394000C11F4882352F0BB0F40F4BF2BDF
:1004A00011F460FF04C06F5F7F4F8F4F9F4F08951F
:1004B00057FD9058440F551F59F05F3F71F0479515
:1004C000880F97FB991F61F09F3F79F087950895FA
:1004D000121613061406551FF2CF4695F1DF08C019
:1004E000161617061806991FF1CF86957105610536
:1004F00008940895E894BB2766277727CB0197F9DE
:1005000008950E9494020C9447020E94390238F028
:100510000E94400220F0952311F00C9430020C94BC
:10052000360211240C947B020E94580270F3959FAE
:10053000C1F3950F50E0551F629FF001729FBB27DA
:10054000F00DB11D639FAA27F00DB11DAA1F649F76
:100550006627B00DA11D661F829F2227B00DA11D29
:10056000621F739FB00DA11D621F839FA00D611DAF
:10057000221F749F3327A00D611D231F849F600DD0
:10058000211D822F762F6A2F11249F5750409AF0F9
:10059000F1F088234AF0EE0FFF1FBB1F661F771F85
:1005A000881F91505040A9F79E3F510580F00C9450
:1005B00030020C947B025F3FE4F3983ED4F38695BF
:1005C00077956795B795F795E7959F5FC1F7FE2BF0
:1005D000880F911D9695879597F90895F894FFCF08
:00000001FF
