:100000000C9434000C9446000C9446000C9446006A
:100010000C9446000C9446000C9446000C94460048
:100020000C9446000C9446000C9446000C94460038
:100030000C9446000C9446000C9446000C94460028
:100040000C9446000C9446000C9446000C94460018
:100050000C9446000C9446000C9446000C94460008
:100060000C9446000C94460011241FBECFEFD8E03C
:10007000DEBFCDBF21E0A0E0B1E001C01D92A630FF
:10008000B207E1F70E9448000C9458020C9400005B
:100090001AB88FEF8BB984B980E49CE990938700FC
:1000A0008093860088EE93E0909389008093880087
:1000B000E0E8F0E0808182688083E1E8F0E0808120
:1000C0008A618083CAE7D0E00F2EF8E7EF2EF12C8B
:1000D000F02D08E810E01092020110920301109236
:1000E000040110920501888180648883888186FDDF
:1000F000FDCFF7016081718180E090E00E945D0199
:1001000060930201709303018093040190930501B1
:1001100060910201709103018091040190910501A9
:1001200027E93FEF40E650E40E94EB0160930201B3
:100130007093030180930401909305016091020183
:1001400070910301809104019091050120E030E05D
:100150004AE754E40E94BB000E942701709301010A
:10016000609300018091000190910101F801918359
:100170008083B1CF5058BB27AA270E94D2000C948D
:10018000B1010E94A30138F00E94AA0120F039F4C5
:100190009F3F19F426F40C94A0010EF4E095E7FBC0
:1001A0000C949A01E92F0E94C20158F3BA17620712
:1001B00073078407950720F079F4A6F50C94E40101
:1001C0000EF4E0950B2EBA2FA02D0B01B901900172
:1001D0000C01CA01A0011124FF27591B99F0593FB6
:1001E00050F4503E68F11A16F040A22F232F342FFE
:1001F0004427585FF3CF469537952795A795F0404C
:100200005395C9F77EF41F16BA0B620B730B840B60
:10021000BAF09150A1F0FF0FBB1F661F771F881F18
:10022000C2F70EC0BA0F621F731F841F48F4879570
:1002300077956795B795F7959E3F08F0B0CF939562
:10024000880F08F09927EE0F9795879508950E94DB
:100250002E016894B1110C94E50108950E94CA0121
:1002600088F09F5798F0B92F9927B751B0F0E1F077
:10027000660F771F881F991F1AF0BA95C9F714C027
:10028000B13091F00E94E401B1E008950C94E401D2
:10029000672F782F8827B85F39F0B93FCCF3869560
:1002A00077956795B395D9F73EF4909580957095BD
:1002B00061957F4F8F4F9F4F0895E89409C097FB3A
:1002C0003EF490958095709561957F4F8F4F9F4F2D
:1002D0009923A9F0F92F96E9BB279395F695879571
:1002E00077956795B795F111F8CFFAF4BB0F11F434
:1002F00060FF1BC06F5F7F4F8F4F9F4F16C08823DB
:1003000011F096E911C0772321F09EE8872F762F10
:1003100005C0662371F096E8862F70E060E02AF051
:100320009A95660F771F881FDAF7880F969587953D
:1003300097F9089597F99F6780E870E060E0089565
:100340009FEF80EC089500240A94161617061806ED
:100350000906089500240A941216130614060506C9
:100360000895092E0394000C11F4882352F0BB0F5A
:1003700040F4BF2B11F460FF04C06F5F7F4F8F4FBD
:100380009F4F089557FD9058440F551F59F05F3FF8
:1003900071F04795880F97FB991F61F09F3F79F0A7
:1003A00087950895121613061406551FF2CF469529
:1003B000F1DF08C0161617061806991FF1CF8695AB
:1003C0007105610508940895E894BB27662777278F
:1003D000CB0197F908950E94FE010C94B1010E948F
:1003E000A30138F00E94AA0120F0952311F00C948B
:1003F0009A010C94A00111240C94E5010E94C20101
:1004000070F3959FC1F3950F50E0551F629FF00167
:10041000729FBB27F00DB11D639FAA27F00DB11D80
:10042000AA1F649F6627B00DA11D661F829F222709
:10043000B00DA11D621F739FB00DA11D621F839F90
:10044000A00D611D221F749F3327A00D611D231F66
:10045000849F600D211D822F762F6A2F11249F57B4
:1004600050409AF0F1F088234AF0EE0FFF1FBB1FB7
:10047000661F771F881F91505040A9F79E3F510576
:1004800080F00C949A010C94E5015F3FE4F3983EF0
:10049000D4F3869577956795B795F795E7959F5F20
:1004A000C1F7FE2B880F911D9695879597F90895B2
:0404B000F894FFCFEE
:00000001FF
