:020000020000FC
:040000000C9400015B
:04002C000C941D0112
:10020000389A3C9A3D9A50E060E010E00FEF04B954
:100210000FEF0DBF08E00EBF42E040936F007894EF
:100220004FE04093890042E44093880040E04093CF
:1002300080004DE040938100FFCF01E01027103097
:1002400011F440981FC0409A5395639555B9653095
:1002500029F420E2212B28B90C9442016A3029F4B8
:1002600020E1212B28B90C9442016F3029F420E3BE
:10027000212B28B90C944201643121F460E020E084
:06028000212B28B918959E
:00000001FF
