S00D000044413554312E73726563D8
S11300000C9434000C9446000C9446000C94460066
S11300100C9446000C9446000C9446000C94460044
S11300200C9446000C9446000C9446000C94460034
S11300300C9446000C9446000C9446000C94460024
S11300400C9446000C9446000C9446000C94460014
S11300500C9446000C9446000C9446000C94460004
S11300600C9446000C94460011241FBECFEFD8E038
S1130070DEBFCDBF21E0A0E0B1E001C01D92A430FD
S1130080B207E1F70E945A000C9478020C94000025
S1130090009741F0EFECF7E03197F1F700C0000072
S11300A00197C1F7089582E480937C0085E88093EA
S11300B07A000895569A80E48BB90E945300CAE7E7
S11300C0D0E00F2EF8E7EF2EF12CF02D03E610E030
S11300D0109200011092010110920201109203018A
S11300E0888180648883888186FDFDCFF7016081E3
S11300F0718180E090E00E947D0160930001709323
S113010001018093020190930301609100017091B9
S11301100101809102019091030120E030E040EA66
S113012050E40E940B0220E030E040E85AE30E94D1
S11301300B0260930001709301018093020190937C
S1130140030160910001709101018091020190917D
S1130150030120E030E040EA50E40E94D50020E0B2
S113016030E048EC52E40E940B026093000170936B
S11301700101809302019093030160910001709149
S1130180010180910201909103010E9447014B01FA
S11301905C015E9AC801881999090E9448005E981A
S11301A0C40101970E94480093CF0E94E9000C9477
S11301B0D1010E94CA0158F00E94C30140F029F401
S11301C05F3F29F00C94BA0151110C9405020C9470
S11301D0C0010E94E20168F39923B1F3552391F31E
S11301E0951B550BBB27AA2762177307840738F0A2
S11301F09F5F5F4F220F331F441FAA1FA9F335D0FF
S11302000E2E3AF0E0E832D091505040E695001CB2
S1130210CAF72BD0FE2F29D0660F771F881FBB1F6C
S1130220261737074807AB07B0E809F0BB0B802D4A
S1130230BF01FF2793585F4F3AF09E3F510578F076
S11302400C94BA010C9405025F3FE4F3983ED4F396
S1130250869577956795B795F7959F5FC9F7880F4A
S1130260911D9695879597F90895E1E0660F771F9C
S1130270881FBB1F621773078407BA0720F0621B2D
S1130280730B840BBA0BEE1F88F7E09508950E9458
S11302904E016894B1110C94050208950E94EA017C
S11302A088F09F5798F0B92F9927B751B0F0E1F033
S11302B0660F771F881F991F1AF0BA95C9F714C0E3
S11302C0B13091F00E940402B1E008950C9404024C
S11302D0672F782F8827B85F39F0B93FCCF386951C
S11302E077956795B395D9F73EF490958095709579
S11302F061957F4F8F4F9F4F0895E89409C097FBF6
S11303003EF490958095709561957F4F8F4F9F4FE8
S11303109923A9F0F92F96E9BB279395F69587952C
S113032077956795B795F111F8CFFAF4BB0F11F4EF
S113033060FF1BC06F5F7F4F8F4F9F4F16C0882396
S113034011F096E911C0772321F09EE8872F762FCC
S113035005C0662371F096E8862F70E060E02AF00D
S11303609A95660F771F881FDAF7880F96958795F9
S113037097F9089597F99F6780E870E060E0089521
S11303809FEF80EC089500240A94161617061806A9
S11303900906089500240A94121613061406050685
S11303A00895092E0394000C11F4882352F0BB0F16
S11303B040F4BF2B11F460FF04C06F5F7F4F8F4F79
S11303C09F4F089557FD9058440F551F59F05F3FB4
S11303D071F04795880F97FB991F61F09F3F79F063
S11303E087950895121613061406551FF2CF4695E5
S11303F0F1DF08C0161617061806991FF1CF869567
S11304007105610508940895E894BB27662777274A
S1130410CB0197F908950E941E020C94D1010E9409
S1130420C30138F00E94CA0120F0952311F00C9406
S1130430BA010C94C00111240C9405020E94E2013B
S113044070F3959FC1F3950F50E0551F629FF00123
S1130450729FBB27F00DB11D639FAA27F00DB11D3C
S1130460AA1F649F6627B00DA11D661F829F2227C5
S1130470B00DA11D621F739FB00DA11D621F839F4C
S1130480A00D611D221F749F3327A00D611D231F22
S1130490849F600D211D822F762F6A2F11249F5770
S11304A050409AF0F1F088234AF0EE0FFF1FBB1F73
S11304B0661F771F881F91505040A9F79E3F510532
S11304C080F00C94BA010C9405025F3FE4F3983E6B
S11304D0D4F3869577956795B795F795E7959F5FDC
S11304E0C1F7FE2B880F911D9695879597F908956E
S10704F0F894FFCFAA
S9030000FC
