:100000000C9434000C9451000C9451000C94510049
:100010000C9451000C9451000C9451000C9451001C
:100020000C9451000C9451000C9451000C9451000C
:100030000C9451000C9451000C9451000C945100FC
:100040000C9451000C9451000C9451000C945100EC
:100050000C9451000C9451000C9451000C945100DC
:100060000C9451000C94510011241FBECFEFD8E026
:10007000DEBFCDBF11E0A0E0B1E0EAE8FEE002C0E3
:1000800005900D92AC3FB107D9F722E0ACEFB1E09B
:1000900001C01D92A437B207E1F70E9478000C94CA
:1000A00043070C9400009093C5008093C400E1ECDA
:1000B000F0E0808188618083E2ECF0E080818660FE
:1000C00080830895CF93DF93FC012081222369F080
:1000D000DC011196E0ECF0E0C6ECD0E0908195FFF9
:1000E000FDCF28832D912111F9CFDF91CF91089574
:1000F000CF93DF9300D000D000D0CDB7DEB7789497
:1001000088E090E00E9453000E94A701259A60E6D3
:1001100071E084E191E00E94530468E571E084E1BC
:1001200091E00E94530484E191E00E94620082ED1C
:100130000E94AD0188E691E00E9462002D9A2FEFA7
:1001400081EE94E0215080409040E1F700C0000033
:100150002D980E94600281E791E00E94620066E4AF
:1001600071E080E091E00E9453046FE371E080E071
:1001700091E00E94530480E091E00E9462008AE7CF
:1001800091E00E9462000CE811E00F2EFAE0FF2ED1
:10019000F02D0F2EF6E42F2EF02D83E891E00E9433
:1001A0006200CE0101960E94B50269817A81072E14
:1001B000000C880B990B0E945A032DEC3CEC4CE18F
:1001C00051E40E94E6039B01AC010E94EC0220E096
:1001D00030E040E058E30E94E603E62ED72EC82E1A
:1001E000B92E6B817C81072E000C880B990B0E9425
:1001F0005A032DEC3CEC4CE151E40E94E6039B01D8
:10020000AC010E94EC0220E030E040E058E30E94A4
:10021000E603A62E972E882E792E6D817E81072EDD
:10022000000C880B990B0E945A032DEC3CEC4CE11E
:1002300051E40E94E6039B01AC010E94EC0220E025
:1002400030E040E058E30E94E603662E572E482E29
:10025000392EBF92CF92DF92EF921F930F931F928E
:10026000FF92A2E4B2E0BF93AF930E945E047F923C
:100270008F929F92AF921F930F931F92FF92AAE6C5
:10028000B2E0BF93AF930E945E043F924F925F92A1
:100290006F921F930F931F92FF92ACE4B2E0BF9353
:1002A000AF930E945E043F924F925F926F927F9253
:1002B0008F929F92AF92BF92CF92DF92EF92AEE178
:1002C000B1E0BF93AF93A0E9B1E0BF93AF931F92AA
:1002D0002F92ACEFB1E0BF93AF930E945E040FB6D4
:1002E000F894DEBF0FBECDBF1F922F92ADECB1E0F0
:1002F000BF93AF931F9284E18F93A6E5B2E0BF93C3
:10030000AF930E945E0480E091E00E9462008FE162
:100310009EE40197F1F700C0000086E592E00E949C
:100320006200AFE1BEE41197F1F700C000000FB624
:10033000F894DEBF0FBECDBF8CEF91E00E9462004B
:10034000AFE1BEE41197F1F700C0000026CF109294
:10035000B90088E48093B8000895CF93C82F94EA39
:100360009093BC008DED91E00E946200ECEBF0E018
:1003700090819923ECF787EE91E00E9462009091C2
:10038000B900987F983011F09031C1F4C093BB0050
:1003900084E88093BC00ECEBF0E080818823ECF7EC
:1003A00081EF91E00E9462009091B900987F9831AE
:1003B00039F081E0903429F480E003C081E001C08D
:1003C00080E0CF910895CF93DF93ECEBF0E024EA47
:1003D000A9EBB0E0CBEBD0E034E844E92083908196
:1003E0009923ECF79C91987F983011F09031B1F7F8
:1003F0008883308390819923ECF79C91987F903289
:1004000011F0983529F44083908194FDFDCFE6CF1B
:10041000DF91CF9108950E94AD01089584E9809302
:10042000BC00ECEBF0E0808184FDFDCF089580936B
:10043000BB0084E88093BC00ECEBF0E08081882373
:10044000ECF79091B900987F81E0983209F480E050
:10045000089584E88093BC00ECEBF0E08081882371
:10046000ECF78091BB0008950F931F93CF93DF9318
:10047000C82FD62F8A010E94E3018D2F0E941702F8
:1004800081E08C0F0E940B020E942902F8018083F8
:100490000E940E02DF91CF911F910F910895CF938B
:1004A000DF93D62FC42F0E94E3018D2F0E941702E5
:1004B0008C2F0E9417020E940E02DF91CF910895A7
:1004C00040E06BE682ED0E944F0241E06AE182ED7E
:1004D0000E944F0240E16BE182ED0E944F0240E03A
:1004E0006CE182ED0E944F0240E068E382ED0E94E1
:1004F0004F0240E068E682ED0E944F020895CF93DC
:10050000DF93EC01AC016BE382ED0E943402AE019B
:100510004F5F5F4F6CE382ED0E943402DF91CF9119
:100520000895CF93DF93EC01AC016DE382ED0E945F
:100530003402AE014F5F5F4F6EE382ED0E943402E2
:10054000DF91CF910895CF93DF93EC01AC016FE37E
:1005500082ED0E943402AE014F5F5F4F60E482ED96
:100560000E943402DF91CF9108950F931F93CF9390
:10057000DF9300D0CDB7DEB78C01CE0101960E948B
:100580007F02898190E0982F88272A81822BF801A9
:1005900091838083CE0101960E949102898190E02F
:1005A000982F88272A81822BF80193838283CE019A
:1005B00001960E94A302298130E0322F22278A81EE
:1005C000282BF801358324830F900F90DF91CF9172
:1005D0001F910F9108955058BB27AA270E9403032B
:1005E0000C94AC030E949E0338F00E94A50320F0F7
:1005F00039F49F3F19F426F40C949B030EF4E09514
:10060000E7FB0C949503E92F0E94BD0358F3BA173A
:10061000620773078407950720F079F4A6F50C9418
:10062000DF030EF4E0950B2EBA2FA02D0B01B901BC
:1006300090010C01CA01A0011124FF27591B99F058
:10064000593F50F4503E68F11A16F040A22F232F64
:10065000342F4427585FF3CF469537952795A795B4
:10066000F0405395C9F77EF41F16BA0B620B730B5B
:10067000840BBAF09150A1F0FF0FBB1F661F771FCC
:10068000881FC2F70EC0BA0F621F731F841F48F481
:10069000879577956795B795F7959E3F08F0B0CF0A
:1006A0009395880F08F09927EE0F979587950895F1
:1006B000E89409C097FB3EF49095809570956195FC
:1006C0007F4F8F4F9F4F9923A9F0F92F96E9BB27B2
:1006D0009395F695879577956795B795F111F8CF2E
:1006E000FAF4BB0F11F460FF1BC06F5F7F4F8F4F99
:1006F0009F4F16C0882311F096E911C0772321F08F
:100700009EE8872F762F05C0662371F096E8862F26
:1007100070E060E02AF09A95660F771F881FDAF77D
:10072000880F9695879597F9089597F99F6780E8C0
:1007300070E060E008959FEF80EC089500240A9433
:100740001616170618060906089500240A941216AC
:100750001306140605060895092E0394000C11F4DF
:10076000882352F0BB0F40F4BF2B11F460FF04C08C
:100770006F5F7F4F8F4F9F4F089557FD9058440FE5
:10078000551F59F05F3F71F04795880F97FB991FF0
:1007900061F09F3F79F087950895121613061406AD
:1007A000551FF2CF4695F1DF08C01616170618063A
:1007B000991FF1CF86957105610508940895E89415
:1007C000BB2766277727CB0197F908950E94F90385
:1007D0000C94AC030E949E0338F00E94A50320F005
:1007E000952311F00C9495030C949B0311240C9405
:1007F000E0030E94BD0370F3959FC1F3950F50E095
:10080000551F629FF001729FBB27F00DB11D639FC2
:10081000AA27F00DB11DAA1F649F6627B00DA11D68
:10082000661F829F2227B00DA11D621F739FB00D0E
:10083000A11D621F839FA00D611D221F749F33277E
:10084000A00D611D231F849F600D211D822F762F17
:100850006A2F11249F5750409AF0F1F088234AF0F4
:10086000EE0FFF1FBB1F661F771F881F9150504060
:10087000A9F79E3F510580F00C9495030C94E0037A
:100880005F3FE4F3983ED4F3869577956795B795E7
:10089000F795E7959F5FC1F7FE2B880F911D969501
:1008A000879597F90895FB01DC010D900020E9F789
:1008B000119701900D920020E1F70895AEE0B0E0AD
:1008C000E4E6F4E00C941A070D891E898F89988D4F
:1008D00026E02C831A83098397FF02C080E090E80A
:1008E00001979E838D83AE01455E5F4F698D7A8D42
:1008F000CE0101960E948E044D815E8157FD0AC093
:100900002F813885421753070CF49A01F801E20F42
:10091000F31F10822E96E4E00C943607ACE0B0E0B2
:10092000E4E9F4E00C940C077C016B018A01FC0102
:1009300017821682838181FFBDC1CE0101964C01D1
:10094000F7019381F60193FD859193FF81916F01EA
:10095000882309F4ABC1853239F493FD859193FF67
:1009600081916F01853229F4B70190E00E947606EB
:10097000E7CF512C312C20E02032A0F48B3269F0EB
:1009800030F4803259F0833269F420612CC08D320A
:1009900039F0803339F4216026C02260246023C0FE
:1009A000286021C027FD27C030ED380F3A3078F499
:1009B00026FF06C0FAE05F9E300D1124532E13C0AF
:1009C0008AE0389E300D1124332E20620CC08E3206
:1009D00021F426FD6BC1206406C08C3611F420681A
:1009E00002C0883641F4F60193FD859193FF819111
:1009F0006F018111C1CF982F9F7D9554933028F4BA
:100A00000C5F1F4FFFE3F9830DC0833631F083374E
:100A100071F0833509F05BC022C0F80180818983C1
:100A20000E5F1F4F44244394512C540115C03801CC
:100A3000F2E06F0E711CF801A080B18026FF03C0A8
:100A4000652D70E002C06FEF7FEFC5012C870E941B
:100A50006B062C0183012C852F77222E17C03801BD
:100A6000F2E06F0E711CF801A080B18026FF03C078
:100A7000652D70E002C06FEF7FEFC5012C870E94EB
:100A800060062C012C852068222E830123FC1BC0CC
:100A9000832D90E048165906B0F4B70180E290E04B
:100AA0000E9476063A94F4CFF50127FC859127FE43
:100AB00081915F01B70190E00E94760631103A946F
:100AC000F1E04F1A51084114510471F7E5C0843622
:100AD00011F0893639F5F80127FF07C0608171816F
:100AE000828193810C5F1F4F08C060817181072E46
:100AF000000C880B990B0E5F1F4F2F76722E97FFFD
:100B000009C090958095709561957F4F8F4F9F4F4D
:100B10002068722E2AE030E0A4010E94AE06A82EC2
:100B2000A81844C0853729F42F7EB22E2AE030E081
:100B300025C0F22FF97FBF2E8F36C1F018F488350B
:100B400079F0B4C0803719F0883721F0AFC02F2F6B
:100B50002061B22EB4FE0DC08B2D8460B82E09C06A
:100B600024FF0AC09F2F9660B92E06C028E030E00F
:100B700005C020E130E002C020E132E0F801B7FE1C
:100B800007C060817181828193810C5F1F4F06C015
:100B90006081718180E090E00E5F1F4FA4010E9490
:100BA000AE06A82EA818FB2DFF777F2E76FE0BC071
:100BB000372D3E7FA51450F474FE0AC072FC08C0A5
:100BC000372D3E7E05C0BA2C372D03C0BA2C01C08C
:100BD000B52C34FF0DC0FE01EA0DF11D808180337C
:100BE00011F4397E09C032FF06C0B394B39404C037
:100BF000832F867809F0B39433FD13C030FF06C00D
:100C00005A2CB31418F4530C5B18B32CB31468F4B7
:100C1000B70180E290E03C870E947606B3943C8561
:100C2000F5CFB31410F43B1801C0312C34FF12C0BF
:100C3000B70180E390E03C870E9476063C8532FF56
:100C400017C031FD03C088E790E002C088E590E05E
:100C5000B7010CC0832F867859F031FF02C08BE2B8
:100C600001C080E237FD8DE2B70190E00E94760678
:100C7000A51438F4B70180E390E00E9476065A94F8
:100C8000F7CFAA94F401EA0DF11D8081B70190E03D
:100C90000E947606A110F5CF332009F451CEB7019A
:100CA00080E290E00E9476063A94F6CFF7018681C2
:100CB000978102C08FEF9FEF2C96E2E10C942807FA
:100CC000FC010590615070400110D8F78095909517
:100CD0008E0F9F1F0895FC0161507040019001101C
:100CE000D8F7809590958E0F9F1F08950F931F93AF
:100CF000CF93DF93FB01238121FD03C08FEF9FEF93
:100D000028C022FF16C046815781248135814217B1
:100D1000530744F4A081B1819D012F5F3F4F318380
:100D200020838C93268137812F5F3F4F3783268323
:100D300010C0EB01092F182F0084F185E02D0995D3
:100D4000892BE1F68E819F8101969F838E83812F6F
:100D5000902FDF91CF911F910F910895FA01AA274B
:100D6000283051F1203181F1E8946F936E7F6E5FEE
:100D70007F4F8F4F9F4FAF4FB1E03ED0B4E03CD09C
:100D8000670F781F891F9A1FA11D680F791F8A1F7F
:100D9000911DA11D6A0F711D811D911DA11D20D0E6
:100DA00009F468943F912AE0269F11243019305DA0
:100DB0003193DEF6CF010895462F4770405D419391
:100DC000B3E00FD0C9F7F6CF462F4F70405D4A33DE
:100DD00018F0495D31FD4052419302D0A9F7EACFA6
:100DE000B4E0A6959795879577956795BA95C9F7D5
:100DF00000976105710508959B01AC010A2E0694C8
:100E00005795479537952795BA95C9F7620F731F80
:100E1000841F951FA01D08952F923F924F925F92BD
:100E20006F927F928F929F92AF92BF92CF92DF92FA
:100E3000EF92FF920F931F93CF93DF93CDB7DEB75F
:100E4000CA1BDB0B0FB6F894DEBF0FBECDBF0994F3
:100E50002A88398848885F846E847D848C849B844A
:100E6000AA84B984C884DF80EE80FD800C811B8158
:100E7000AA81B981CE0FD11D0FB6F894DEBF0FBE87
:0A0E8000CDBFED010895F894FFCFF7
:100E8A0041542B43495053544152543D22544350E8
:100E9A00222C220041542B43574A41503D00303006
:100EAA00616639363163623363383464356638349F
:100EBA003063326136303339306664333761002249
:100ECA002C38300D0A0022696F2E616461667275D2
:100EDA0069742E636F6D220022787878220D0A00D9
:100EEA0022585858222C200048454C4C4F320D0AA3
:100EFA000048454C4C4F330D0A0048454C4C4F3581
:100F0A000D0A0048454C4C4F360D0A002533660041
:100F1A00474554202F7570646174653F6170695F3D
:100F2A006B65793D2573266669656C64313D252EAE
:100F3A003266266669656C64323D252E32662666FF
:100F4A0069656C64333D252E32660D0A0041542BC7
:100F5A0043495053454E443D25640D0A0048454CCB
:100F6A004C4F33360D0A0048454C4C4F33380D0A66
:0C0F7A000048454C4C4F3336350D0A0042
:00000001FF
