:10000000B0C00000CAC00000C8C00000C6C00000E8
:10001000C4C00000C2C00000C0C00000BEC00000DC
:10002000BCC00000BAC00000B8C00000B6C00000EC
:10003000B4C00000B2C00000B0C00000AEC00000FC
:10004000ACC00000AAC00000A8C00000A6C000000C
:10005000A4C00000A2C00000A0C000009EC000001C
:100060009CC000009AC0000000407A10F35A00A023
:10007000724E18090010A5D4E80000E87648170071
:1000800000E40B54020000CA9A3B000000E1F505B1
:10009000000080969800000040420F000000A086FB
:1000A00001000000102700000000E803000000002D
:1000B0006400000000000A000000000001000000D1
:1000C00000002C76D888DC674F0823DFC1DFAE59EB
:1000D000E1B1B796E5E3E453C63AE651997696E87E
:1000E000E6C28426EB898C9B62ED407C6FFCEFBC02
:1000F0009C9F40F2BAA56FA5F490055A2AF75C932D
:100100006B6CF9676DC11BFCE0E40D47FEF520E662
:10011000B500D0ED902E0300943577050080841E45
:10012000080000204E0A000000C80C333333330FA0
:10013000986E12831141EF8D2114893BE65516CF3D
:10014000FEE6DB18D1844B381BF77C1D901DA4BB49
:10015000E424203284725E228100C9F124ECA1E5FE
:100160003D2711241FBECFEFD8E0DEBFCDBF11E089
:10017000A0E0B1E0E2E9F6E102C005900D92AE39EF
:10018000B107D9F722E0AEE9B1E001C01D92A63671
:10019000B207E1F728D00C94470B32CF9093C500FB
:1001A0008093C400E1ECF0E0808188618083E2EC20
:1001B000F0E08081866080830895CF93DF93FC0117
:1001C0002081222369F0DC011196E0ECF0E0C6EC1E
:1001D000D0E0908195FFFDCF28832D912111F9CF9B
:1001E000DF91CF910895CF93DF93CDB7DEB7A0977E
:1001F0000FB6F894DEBF0FBECDBF789488E090E0D4
:10020000CDDFD4D1259A80EDD7D12D9A2FEF31EEC5
:1002100044E0215030404040E1F700C000002D98FC
:1002200065D28AE090E0EFEFF9E628E1E150F04096
:100230002040E1F700C000000197A9F70F2EFAE275
:10024000AF2EF1E0BF2EF02D0F2EF8E78F2EF02D00
:100250000F2EF8EA2F2EF1E03F2EF02D0F2EFDE8A5
:10026000CF2EF1E0DF2EF02D0F2EF4E19F2EF02D9A
:100270000F2EF8E4EF2EF2E0FF2EF02DCE010196C6
:10028000E1D2CE0107967BD269817A81072E000CDC
:10029000880B990B78D320E030E040E858E323D472
:1002A0006D877E878F87988B6B817C81072E000CF2
:1002B000880B990B68D320E030E040E858E313D472
:1002C0002B013C016D817E81072E000C880B990B60
:1002D0005AD320E030E040E858E305D4698B7A8BAC
:1002E0008B8B9C8B6F817885072E000C880B990B6C
:1002F0004AD323E333E343E052E4DBD26D8B7E8BBE
:100300008F8B988F69857A85072E000C880B990B47
:100310003AD323E333E343E052E4CBD2698F7A8FBD
:100320008B8F9C8F6B857C85072E000C880B990B1F
:100330002AD323E333E343E052E4BBD26D8F7E8FB5
:100340008F8F98A320E030E0A9016D857E858F8591
:100350009889ABD2882354F400E212E023E046E00F
:100360006D857E858F85988921D40FC000E212E0CB
:1003700023E046E06D857E858F85988917D44AE015
:1003800050E061E272E0C80130D420E030E0A90121
:10039000C301B2018AD2882344F40CE512E023E0C1
:1003A00046E0C301B20102D40DC00CE512E023E027
:1003B00046E0C301B201FAD34AE050E06DE572E0D5
:1003C000C80113D420E030E0A90169897A898B89BA
:1003D0009C896BD2882354F40EE312E023E046E0BC
:1003E00069897A898B899C89E1D30FC00EE312E079
:1003F00023E046E069897A898B899C89D7D34AE0D2
:1004000050E06FE372E0C801F0D320E030E0A901D2
:100410006D897E898F89988D48D2882354F404E3AE
:1004200012E023E046E06D897E898F89988DBED3E6
:100430000FC004E312E023E046E06D897E898F89D6
:10044000988DB4D34AE050E065E372E0C801CDD3A3
:1004500020E030E0A901698D7A8D8B8D9C8D25D2AD
:10046000882354F40EE911E023E046E0698D7A8D8B
:100470008B8D9C8D9BD30FC00EE911E023E046E0ED
:10048000698D7A8D8B8D9C8D91D34AE050E06FE918
:1004900071E0C801AAD320E030E0A9016D8D7E8D06
:1004A0008F8D98A102D2882354F40AE212E023E04F
:1004B00046E06D8D7E8D8F8D98A178D30FC00AE2B6
:1004C00012E023E046E06D8D7E8D8F8D98A16ED376
:1004D0004AE050E06BE272E0C80187D38AE292E022
:1004E0009F938F938EE991E09F938F9384E392E0A3
:1004F0009F938F938EE392E09F938F938CE592E08E
:100500009F938F9380E292E09F938F93BF92AF92DD
:100510001F928F923F922F9279D30FB6F894DEBF3D
:100520000FBECDBFF1018081882349F0E9EAF1E0F7
:1005300080E090E0019621912111FCCF02C080E083
:1005400090E09F938F93DF92CF921F929F92FF92A2
:10055000EF925CD380E091E030DEFFEF23EC39E0F6
:10056000F15020403040E1F700C00000C70125DE17
:100570004FEF80E792E0415080409040E1F700C0AB
:100580000000C1011ADE0FB6F894DEBF0FBECDBF6A
:1005900080E190E0FFEF29E638E1F1502040304063
:1005A000E1F700C000000197A9F768CE1092B900EA
:1005B00088E48093B800089594EA9093BC00ECEB33
:1005C000F0E090819923ECF79091B900987F9830F2
:1005D00011F09031A1F48093BB0084E88093BC00BB
:1005E000ECEBF0E080818823ECF79091B900987FE4
:1005F000983139F081E0903429F480E0089581E069
:10060000089580E00895CF93DF93ECEBF0E024EAC7
:10061000A9EBB0E0CBEBD0E034E844E92083908153
:100620009923ECF79C91987F983011F09031B1F7B5
:100630008883308390819923ECF79C91987F903246
:1006400011F0983529F44083908194FDFDCFE6CFD9
:10065000DF91CF910895B0CF089584E98093BC00D5
:10066000ECEBF0E0808184FDFDCF08958093BB002A
:1006700084E88093BC00ECEBF0E080818823ECF709
:100680009091B900987F81E0983209F480E0089554
:1006900084E88093BC00ECEBF0E080818823ECF7E9
:1006A0008091BB0008950F931F93CF93DF93C82FC2
:1006B000D62F8A01A8DF8D2FD9DF81E08C0FCBDF09
:1006C000E7DFF8018083C9DFDF91CF911F910F91A0
:1006D0000895CF93DF93D62FC42F95DF8D2FC6DFDC
:1006E0008C2FC4DFBADFDF91CF91089540E06BE635
:1006F00080EDEFDF41E06AE180EDEBDF40E16BE1AF
:1007000080EDE7DF40E06CE180EDE3DF40E068E3AF
:1007100080EDDFDF40E068E680EDDBCF0895CF932A
:10072000DF93EC01AC0163E480EDBDDFAE014F5F10
:100730005F4F64E480EDB7DFDF91CF910895CF93F1
:10074000DF93EC01AC0165E480EDADDFAE014F5FFE
:100750005F4F66E480EDA7DFDF91CF910895CF93DF
:10076000DF93EC01AC0167E480ED9DDFAE014F5FEC
:100770005F4F68E480ED97DFDF91CF9108950F938D
:100780001F93CF93DF9300D0CDB7DEB78C01CE019E
:100790000196C5DF898190E0982F88272A81822BD6
:1007A000F80191838083CE010196C9DF898190E0B1
:1007B000982F88272A81822BF80193838283CE0188
:1007C0000196CDDF298130E0322F22278A81282B24
:1007D000F801358324830F900F90DF91CF911F9103
:1007E0000F910895CF93DF93EC01AC016BE380EDA3
:1007F0005ADFAE014F5F5F4F6CE380ED54DFDF9156
:10080000CF910895CF93DF93EC01AC016DE380EDC0
:100810004ADFAE014F5F5F4F6EE380ED44DFDF9153
:10082000CF910895CF93DF93EC01AC016FE380ED9E
:100830003ADFAE014F5F5F4F60E480ED34DFDF9160
:10084000CF9108950F931F93CF93DF9300D0CDB72F
:10085000DEB78C01CE010196C5DF898190E0982F2B
:1008600088272A81822BF80191838083CE0101960B
:10087000C9DF898190E0982F88272A81822BF8018F
:1008800093838283CE010196CDDF298130E0322F20
:1008900022278A81282BF801358324830F900F901B
:1008A000DF91CF911F910F910895A8D008F481E0B6
:1008B00008950CD0DEC0D6D040F0CDD030F021F479
:1008C0005F3F19F0BFC0511108C1C2C0E3D098F317
:1008D0009923C9F35523B1F3951B550BBB27AA27C1
:1008E00062177307840738F09F5F5F4F220F331F33
:1008F000441FAA1FA9F333D00E2E3AF0E0E830D0FF
:1009000091505040E695001CCAF729D0FE2F27D001
:10091000660F771F881FBB1F261737074807AB07CF
:10092000B0E809F0BB0B802DBF01FF2793585F4F44
:100930002AF09E3F510568F085C0CFC05F3FECF3C1
:10094000983EDCF3869577956795B795F7959F5F09
:10095000C9F7880F911D9695879597F90895E1E05D
:10096000660F771F881FBB1F621773078407BA07BC
:1009700020F0621B730B840BBA0BEE1F88F7E09517
:100980000895E89409C097FB3EF490958095709582
:1009900061957F4F8F4F9F4F9923A9F0F92F96E9CB
:1009A000BB279395F695879577956795B795F11140
:1009B000F8CFFAF4BB0F11F460FF1BC06F5F7F4FDD
:1009C0008F4F9F4F16C0882311F096E911C07723EF
:1009D00021F09EE8872F762F05C0662371F096E8F8
:1009E000862F70E060E02AF09A95660F771F881FC7
:1009F000DAF7880F9695879597F90895990F00086B
:100A0000550FAA0BE0E8FEEF16161706E807F907E0
:100A1000C0F012161306E407F50798F0621B730B7B
:100A2000840B950B39F40A2661F0232B242B252BFC
:100A300021F408950A2609F4A140A6958FEF811D9F
:100A4000811D089597F99F6780E870E060E0089540
:100A50009FEF80EC089500240A94161617061806D6
:100A60000906089500240A941216130614060506B2
:100A70000895092E0394000C11F4882352F0BB0F43
:100A800040F4BF2B11F460FF04C06F5F7F4F8F4FA6
:100A90009F4F089557FD9058440F551F59F05F3FE1
:100AA00071F04795880F97FB991F61F09F3F79F090
:100AB00087950895121613061406551FF2CF469512
:100AC000F1DF08C0161617061806991FF1CF869594
:100AD0007105610508940895E894BB276627772778
:100AE000CB0197F908950BD0C4CFB5DF28F0BADF5A
:100AF00018F0952309F0A6CFABCF1124EECFCADFB3
:100B0000A0F3959FD1F3950F50E0551F629FF00120
:100B1000729FBB27F00DB11D639FAA27F00DB11D79
:100B2000AA1F649F6627B00DA11D661F829F222702
:100B3000B00DA11D621F739FB00DA11D621F839F89
:100B4000A00D611D221F749F3327A00D611D231F5F
:100B5000849F600D211D822F762F6A2F11249F57AD
:100B600050408AF0E1F088234AF0EE0FFF1FBB1FD0
:100B7000661F771F881F91505040A9F79E3F51056F
:100B800070F060CFAACF5F3FECF3983EDCF3869520
:100B900077956795B795F795E7959F5FC1F7FE2B1A
:100BA000880F911D9695879597F90895EF920F9369
:100BB0001F93CF93DF93E80147FD02C034E001C0EB
:100BC00034E1E42F440FFF0BF7FF03C0F195E195EB
:100BD000F109E32E022F2E2FAE0108D2CE01DF91B4
:100BE000CF911F910F91EF9008956817790768F4DE
:100BF000FB01DC01E40FF51FA40FB51F02C002903A
:100C00000E9241505040D8F7089560C4AEE0B0E075
:100C1000EBE0F6E013C50D891E898F89988D26E0DB
:100C20002C831A83098397FF02C080E090E8019724
:100C30009E838D83AE01455E5F4F698D7A8DCE01B7
:100C4000019611D04D815E8157FD0AC02F813885F4
:100C5000421753070CF49A01F801E20FF31F1082B8
:100C60002E96E4E007C5ACE0B0E0E8E3F6E0D8C4D7
:100C70007C016B018A01FC0117821682838181FF4E
:100C8000B0C1CE0101964C01F7019381F60193FDAD
:100C9000859193FF81916F01882309F49EC185326C
:100CA00039F493FD859193FF81916F01853221F491
:100CB000B70190E01FD4E8CF512C312C20E0203236
:100CC000A0F48B3269F030F4803259F0833269F449
:100CD00020612CC08D3239F0803339F4216026C078
:100CE0002260246023C0286021C027FD27C030ED8A
:100CF000380F3A3078F426FF06C0FAE05F9E300DD8
:100D00001124532E13C08AE0389E300D1124332E47
:100D100020620CC08E3221F426FD5FC1206406C023
:100D20008C3611F4206802C0883641F4F60193FD38
:100D3000859193FF81916F018111C1CF982F9F7D84
:100D40009554933028F40C5F1F4FFFE3F9830DC0D7
:100D5000833631F0833771F0833509F057C021C0F5
:100D6000F801808189830E5F1F4F44244394512CE6
:100D7000540114C03801F2E06F0E711CF801A0801C
:100D8000B18026FF03C0652D70E002C06FEF7FEFDA
:100D9000C5012C87A4D32C0183012C852F77222E0B
:100DA00016C03801F2E06F0E711CF801A080B1800E
:100DB00026FF03C0652D70E002C06FEF7FEFC50115
:100DC0002C8779D32C012C852068222E830123FCCB
:100DD00019C0832D90E048165906A0F4B70180E2AF
:100DE00090E088D33A94F5CFF50127FC859127FE52
:100DF00081915F01B70190E07DD331103A94F1E029
:100E00004F1A51084114510479F7DEC0843611F0AD
:100E1000893631F5F80127FF07C060817181828131
:100E200093810C5F1F4F08C060817181072E000CF9
:100E3000880B990B0E5F1F4F2F76722E97FF09C0FC
:100E400090958095709561957F4F8F4F9F4F20684B
:100E5000722E2AE030E0A40185D3A82EA81843C042
:100E6000853729F42F7EB22E2AE030E025C0F22FFC
:100E7000F97FBF2E8F36C1F018F4883579F0ADC0F8
:100E8000803719F0883721F0A8C02F2F2061B22EAB
:100E9000B4FE0DC08B2D8460B82E09C024FF0AC09B
:100EA0009F2F9660B92E06C028E030E005C020E1F3
:100EB00030E002C020E132E0F801B7FE07C06081F7
:100EC0007181828193810C5F1F4F06C060817181A7
:100ED00080E090E00E5F1F4FA40144D3A82EA81815
:100EE000FB2DFF777F2E76FE0BC0372D3E7FA5149E
:100EF00050F474FE0AC072FC08C0372D3E7E05C057
:100F0000BA2C372D03C0BA2C01C0B52C34FF0DC04C
:100F1000FE01EA0DF11D8081803311F4397E09C094
:100F200032FF06C0B394B39404C0832F867809F0CF
:100F3000B39433FD12C030FF06C05A2CB31418F41A
:100F4000530C5B18B32CB31460F4B70180E290E04B
:100F50003C87D0D2B3943C85F6CFB31410F43B1841
:100F600001C0312C34FF11C0B70180E390E03C8711
:100F7000C1D23C8532FF16C031FD03C088E790E046
:100F800002C088E590E0B7010CC0832F867851F04D
:100F900031FF02C08BE201C080E237FD8DE2B70174
:100FA00090E0A8D2A51430F4B70180E390E0A2D27B
:100FB0005A94F8CFAA94F401EA0DF11D8081B7018B
:100FC00090E098D2A110F6CF332009F45DCEB7019E
:100FD00080E290E08FD23A94F7CFF7018681978133
:100FE00002C08FEF9FEF2C96E2E136C34F925F92E3
:100FF0006F927F929F92AF92BF92CF92DF92EF92C9
:10100000FF920F931F93CF93DF93CDB7DEB729974E
:101010000FB6F894DEBF0FBECDBF6A01122FB02EFF
:101020002BE3201720F0FF24F394F00E02C0BCE362
:10103000FB2E0F2D27E0AE014F5F5F4F64D1AC0157
:101040008981982F9970913031F0E1FC06C0E0FE63
:1010500006C090E205C09DE203C09BE201C090E0A3
:10106000EE2DE07183FF3CC0911102C083E001C00E
:1010700084E0811718F4212F281B01C020E0E11122
:101080000BC0F601822F30E2882319F03193815092
:10109000FBCFC20ED11C20E0992329F0D6019C93EE
:1010A000F60131966F01C6010396E2FE0AC03EE4E6
:1010B000D6013C9341E411964C93119712963C93C0
:1010C00006C03EE6F601308341E641833283FC01EF
:1010D000322F40E2332309F442C041933150FACF1A
:1010E00082FF44C0911102C083E001C084E08117F7
:1010F00018F4212F281B01C020E0E1110BC0F601DC
:10110000822F30E2882319F031938150FBCFC20E39
:10111000D11C20E0992329F0D6019C93F601319649
:101120006F01C6010396E2FE0BC039E4D6013C9381
:101130003EE411963C93119736E412963C9307C017
:1011400039E6F60130833EE6318336E63283FC0130
:10115000322F40E2332319F041933150FBCFFC0191
:10116000E20FF11D10828EEF9FEFB7C0F1E09111F9
:1011700001C0F0E06F2F70E01416150624F49A01F8
:101180002F5F3F4F02C021E030E0260F371FBB200A
:1011900029F06B2D70E06F5F7F4F02C060E070E060
:1011A000260F371F612F70E0261737071CF4121B1C
:1011B000212F01C020E03E2D387159F4D601322F85
:1011C00060E2332319F06D933150FBCFC20ED11C76
:1011D00020E0FF2331F0D6019C93B6016F5F7F4F73
:1011E0006B01E1110BC0F601922F30E3992319F046
:1011F00031939150FBCFC20ED11C20E09F2D940F54
:101200003A81782F7071A72E84FF03C0313309F41F
:101210009150191624F4993018F098E001C091E02B
:10122000E42F852F57FF02C0E0E080E06E2F782F7B
:10123000E0E0F0E0AEE29A2E3A01691A71082A0164
:10124000461A570A0B2D10E01195019511096F3FB1
:101250008FEF780729F4D6019C92C60101966C01A4
:101260004617570784F0661677066CF47F01E40C86
:10127000F51CA1E0B0E0AC0FBD1FEA0EFB1ED701CC
:101280001196BC9002C090E3B92E6150710931965D
:10129000C60101967C016017710724F0D601BC924B
:1012A0006C01D5CF6417750741F4363320F435331C
:1012B00021F4A11002C081E3B82EF601B082F7013B
:1012C000822F90E2882319F091938150FBCFF70190
:1012D000E20FF11D108280E090E029960FB6F8949D
:1012E000DEBF0FBECDBFDF91CF911F910F91FF9059
:1012F000EF90DF90CF90BF90AF909F907F906F90D6
:101300005F904F900895283008F027E03327DA01E6
:10131000990F311D87FD916000966105710539F4C3
:1013200032602E5F3D9330E32A95E1F708959F3FA9
:1013300030F080387105610509F03C5F3C5F3D93FA
:10134000913008F08068911DDF93CF931F930F9326
:10135000FF92EF92192F987F9695E92F9695969583
:10136000E90FFF27EE53FF4F99273327EE24FF2481
:10137000A701E70105900894079428F4360FE71EAB
:10138000F81E491F511D660F771F881F991F06946D
:10139000A1F70590079428F4E70EF81E491F561F81
:1013A000C11D770F881F991F661F0694A1F705902E
:1013B000079428F4F80E491F561FC71FD11D880F28
:1013C000991F661F771F0694A1F70590079420F4D4
:1013D000490F561FC71FD81F990F661F771F881FF9
:1013E0000694A9F784911095177041F0D695C7958A
:1013F00057954795F794E7941A95C1F7E8E6F0E01A
:1014000068941590159135916591959105907FE2BD
:101410007395E118F10A430B560BC90BD009C0F7BD
:10142000E10CF11E431F561FC91FD01D7EF47033FF
:1014300011F48A95E6CFE894015030F0080F0AF4D1
:101440000027021708F4202F2395022F7A3328F063
:1014500079E37D932A95E9F710C07D932A9589F663
:10146000069497956795379517951794E118F10AA3
:10147000430B560BC90BD00998F023957E917395B9
:101480007A3308F070E37C932013B8F77E91706193
:101490007D9330F0839571E37D9370E32A95E1F7B6
:1014A0001124EF90FF900F911F91CF91DF91992719
:1014B00087FD90950895FC010590615070400110E2
:1014C000D8F7809590958E0F9F1F0895FB01DC0142
:1014D00002C001900D9241505040D8F70895FC0190
:1014E0006150704001900110D8F7809590958E0F53
:1014F0009F1F08950F931F93CF93DF93FB012381C9
:1015000021FD03C08FEF9FEF28C022FF16C0468148
:101510005781248135814217530744F4A081B1815A
:101520009D012F5F3F4F318320838C93268137812C
:101530002F5F3F4F3783268310C0EB01092F182FF1
:101540000084F185E02D0995892BE1F68E819F813C
:1015500001969F838E83812F902FDF91CF911F91D2
:101560000F910895FA01AA27283051F1203181F115
:10157000E8946F936E7F6E5F7F4F8F4F9F4FAF4F9B
:10158000B1E03ED0B4E03CD0670F781F891F9A1FAE
:10159000A11D680F791F8A1F911DA11D6A0F711D62
:1015A000811D911DA11D20D009F468943F912AE06E
:1015B000269F11243019305D3193DEF6CF01089556
:1015C000462F4770405D4193B3E00FD0C9F7F6CF87
:1015D000462F4F70405D4A3318F0495D31FD40524F
:1015E000419302D0A9F7EACFB4E0A69597958795E5
:1015F00077956795BA95C9F70097610571050895C4
:101600009B01AC010A2E069457954795379527956F
:10161000BA95C9F7620F731F841F951FA01D089507
:101620002F923F924F925F926F927F928F929F92F2
:10163000AF92BF92CF92DF92EF92FF920F931F93E0
:10164000CF93DF93CDB7DEB7CA1BDB0B0FB6F89491
:10165000DEBF0FBECDBF09942A88398848885F84D1
:101660006E847D848C849B84AA84B984C884DF8042
:10167000EE80FD800C811B81AA81B981CE0FD11D26
:101680000FB6F894DEBF0FBECDBFED010895F894FC
:02169000FFCF8A
:1016920041542B43495053544152543D22544350D8
:1016A200222C223138342E3130362E3135332E3140
:1016B2003439222C38300D0A0000474554202F754A
:1016C20070646174653F6170695F6B65793D553621
:1016D2004B455132434E4A4E414B38355758266698
:1016E20069656C64313D2573266669656C64323DBB
:1016F2002573266669656C64333D257326666965C4
:101702006C64343D2573266669656C64353D2573CA
:10171200266669656C64363D25730D0A0041542BBB
:0E17220043495053454E443D25640D0A0000D6
:00000001FF
