:100000000C9434000C9446000C9446000C9446006A
:100010000C9446000C9446000C9446000C94460048
:100020000C9446000C9446000C9446000C94460038
:100030000C9446000C9446000C9446000C94460028
:100040000C9446000C9446000C9446000C94460018
:100050000C9446000C9446000C9446000C94460008
:100060000C9446000C94460011241FBECFEFD8E03C
:10007000DEBFCDBF21E0A0E0B1E001C01D92A43001
:10008000B207E1F70E945A000C94FC020C940000A5
:10009000009741F0EFECF7E03197F1F700C0000076
:1000A0000197C1F7089582E480937C0085E88093EE
:1000B0007A0008958FEF8AB90E945300CAE7D0E012
:1000C00008E710E00F2EF6E6AF2EF02D0F2EFCEC19
:1000D000BF2EF02D0F2EF9E9CF2EF02D0F2EF3E3CA
:1000E000DF2EF02D109200011092010110920201FA
:1000F00010920301888180648883888186FDFDCF0A
:10010000F8016081718180E090E00E9401026093BB
:1001100000017093010180930201909303016091AB
:10012000000170910101809102019091030120E092
:1001300030E040EA50E40E948F0220E030E040E8E6
:100140005AE30E948F026093000170930101809333
:10015000020190930301609100017091010180916F
:1001600002019091030120E030E040EA50E40E9457
:10017000590120E030E048EC52E40E948F02609385
:10018000000170930101809302019093030120917B
:100190000001309101014091020150910301ABB87F
:1001A00060E070E088EC92E40E94EC000E94CB01D9
:1001B0007B01FFEFEF1AFF0AC7010E944800BBB89E
:1001C000C7010E944800CBB8C7010E944800DBB8B5
:1001D000C7010E94480086CF5058BB27AA270E941B
:1001E00004010C9455020E94470238F00E944E020E
:1001F00020F039F49F3F19F426F40C9444020EF4D5
:10020000E095E7FB0C943E02E92F0E94660258F34A
:10021000BA17620773078407950720F079F4A6F5EB
:100220000C9488020EF4E0950B2EBA2FA02D0B0132
:10023000B90190010C01CA01A0011124FF27591B2B
:1002400099F0593F50F4503E68F11A16F040A22F31
:10025000232F342F4427585FF3CF469537952795A2
:10026000A795F0405395C9F77EF41F16BA0B620BA1
:10027000730B840BBAF09150A1F0FF0FBB1F661FE8
:10028000771F881FC2F70EC0BA0F621F731F841F2B
:1002900048F4879577956795B795F7959E3F08F051
:1002A000B0CF9395880F08F09927EE0F9795879513
:1002B00008950E946D010C9455020E944E0258F060
:1002C0000E94470240F029F45F3F29F00C943E025F
:1002D00051110C9489020C9444020E94660268F346
:1002E0009923B1F3552391F3951B550BBB27AA27EF
:1002F00062177307840738F09F5F5F4F220F331F29
:10030000441FAA1FA9F335D00E2E3AF0E0E832D0F0
:1003100091505040E695001CCAF72BD0FE2F29D0F3
:10032000660F771F881FBB1F261737074807AB07C5
:10033000B0E809F0BB0B802DBF01FF2793585F4F3A
:100340003AF09E3F510578F00C943E020C948902DD
:100350005F3FE4F3983ED4F3869577956795B7951C
:10036000F7959F5FC9F7880F911D9695879597F927
:100370000895E1E0660F771F881FBB1F62177307A0
:100380008407BA0720F0621B730B840BBA0BEE1FB5
:1003900088F7E09508950E94D2016894B1110C94F9
:1003A000890208950E946E0288F09F5798F0B92F35
:1003B0009927B751B0F0E1F0660F771F881F991F9A
:1003C0001AF0BA95C9F714C0B13091F00E948802B2
:1003D000B1E008950C948802672F782F8827B85FC2
:1003E00039F0B93FCCF3869577956795B395D9F7F2
:1003F0003EF490958095709561957F4F8F4F9F4FFC
:100400000895E89409C097FB3EF490958095709507
:1004100061957F4F8F4F9F4F9923A9F0F92F96E950
:10042000BB279395F695879577956795B795F111C5
:10043000F8CFFAF4BB0F11F460FF1BC06F5F7F4F62
:100440008F4F9F4F16C0882311F096E911C0772374
:1004500021F09EE8872F762F05C0662371F096E87D
:10046000862F70E060E02AF09A95660F771F881F4C
:10047000DAF7880F9695879597F9089597F99F670A
:1004800080E870E060E008959FEF80EC089500241C
:100490000A941616170618060906089500240A94E9
:1004A00012161306140605060895092E0394000C6F
:1004B00011F4882352F0BB0F40F4BF2B11F460FFFE
:1004C00004C06F5F7F4F8F4F9F4F089557FD905827
:1004D000440F551F59F05F3F71F04795880F97FB08
:1004E000991F61F09F3F79F08795089512161306C2
:1004F0001406551FF2CF4695F1DF08C016161706F1
:100500001806991FF1CF8695710561050894089525
:10051000E894BB2766277727CB0197F908950E94B7
:10052000A2020C9455020E94470238F00E944E022B
:1005300020F0952311F00C943E020C9444021124F7
:100540000C9489020E94660270F3959FC1F3950F87
:1005500050E0551F629FF001729FBB27F00DB11D47
:10056000639FAA27F00DB11DAA1F649F6627B00DD7
:10057000A11D661F829F2227B00DA11D621F739FC0
:10058000B00DA11D621F839FA00D611D221F749FCE
:100590003327A00D611D231F849F600D211D822F15
:1005A000762F6A2F11249F5750409AF0F1F088233C
:1005B0004AF0EE0FFF1FBB1F661F771F881F915069
:1005C0005040A9F79E3F510580F00C943E020C94D8
:1005D00089025F3FE4F3983ED4F38695779567955B
:1005E000B795F795E7959F5FC1F7FE2B880F911D93
:0C05F0009695879597F90895F894FFCF31
:00000001FF
