:100000000C9434000C943E000C943E000C943E0082
:100010000C943E000C943E000C943E000C943E0068
:100020000C943E000C943E000C943E000C943E0058
:100030000C943E000C943E000C943E000C943E0048
:100040000C943E000C943E000C943E000C943E0038
:100050000C943E000C943E000C943E000C943E0028
:100060000C943E000C943E0011241FBECFEFD8E04C
:10007000DEBFCDBF0E9451000C946C000C940000B8
:1000800022E638EF309385002093840010928000A0
:1000900025E020938100B09BFECFB09A21E082271B
:1000A00008958FEF84B981E387B9C0E0D0E000E024
:1000B00010E080E090E0E12CF12C0E9440008130C3
:1000C0009105D9F70F5F1F4F219605B9C431D105AE
:0C00D000A1F7CE2DDF2DF1CFF894FFCF6B
:00000001FF
