:100000000C9434000C9451000C9451000C94510049
:100010000C9451000C9451000C9451000C9451001C
:100020000C9451000C9451000C9451000C9451000C
:100030000C9451000C9451000C9451000C945100FC
:100040000C9451000C9451000C9451000C945100EC
:100050000C9451000C9451000C9451000C945100DC
:100060000C9451000C94510011241FBECFEFD8E026
:10007000DEBFCDBF11E0A0E0B1E0E6E3F1E002C0F9
:1000800005900D92A230B107D9F721E0A2E0B1E0CE
:1000900001C01D92A430B207E1F70E9467000C94E2
:1000A00099000C94000082E698EF9093850080936D
:1000B00084001092800085E080938100B09BFECF89
:1000C000B09A98B180910001892788B908958FEF7F
:1000D00084B981E387B90E945300409BFCCF809193
:1000E00003018F5F80930301909102019F5F9093C2
:1000F000020185B980910201853019F4449A88B1D2
:1001000018B8809102018A3019F488B118B8459A5C
:10011000809102018F3011F4449A459A8091020136
:100120008431C9F61092020188B118B888B118B8A4
:06013000D2CFF894FFCFCE
:020136000100C6
:00000001FF
