:100000000C9434000C943E000C943E000C943E0082
:100010000C943E000C943E000C943E000C943E0068
:100020000C943E000C943E000C943E000C943E0058
:100030000C943E000C943E000C943E000C943E0048
:100040000C943E000C943E000C943E000C943E0038
:100050000C943E000C943E000C943E000C943E0028
:100060000C943E000C943E0011241FBECFEFD8E04C
:10007000DEBFCDBF0E944F000C9456000C940000D0
:1000800082E698EF90938500809384001092800020
:1000900085E080938100B09BFECFB09A08958FEFEA
:1000A00084B981E387B90E944000FDCFF894FFCF67
:00000001FF
