S00D000044413254342E73726563D8
S11300000C9434000C9451000C9451000C94510045
S11300100C9451000C9451000C9451000C94510018
S11300200C9451000C9451000C9451000C946700F2
S11300300C9451000C9451000C9451000C945100F8
S11300400C9451000C9451000C9451000C945100E8
S11300500C9451000C9451000C9451000C945100D8
S11300600C9451000C94510011241FBECFEFD8E022
S1130070DEBFCDBF11E0A0E0B1E0E8E4F1E002C0F2
S113008005900D92A230B107D9F721E0A2E0B1E0CA
S113009001C01D92A430B207E1F70E9453000C94F2
S11300A0A2000C9400008FEF84B981E387B982E445
S11300B09FE09093890080938800109280008DE0E7
S11300C08093810082E080936F007894FFCF1F9229
S11300D00F920FB60F9211248F939F9398B1809132
S11300E00001892788B9409B26C0809103018F5F56
S11300F080930301909102019F5F9093020185B95F
S113010080910201853021F4449A88B118B813C053
S11301108A3021F488B118B8459A0DC08F3019F48B
S1130120449A459A08C0843131F41092020188B18E
S113013018B888B118B89F918F910F900FBE0F9087
S10B01401F901895F894FFCFFD
S10501480100B0
S9030000FC
