S00D000044413354312E73726563DA
S11300000C9434000C9451000C9451000C94510045
S11300100C9451000C9451000C9451000C94510018
S11300200C9451000C9451000C9451000C94230135
S11300300C9451000C9451000C9451000C945100F8
S11300400C9451000C9451000C9451000C945100E8
S11300500C9451000C9451000C9451000C945100D8
S11300600C9451000C94510011241FBECFEFD8E022
S1130070DEBFCDBF11E0A0E0B1E0ECE9FBE002C0DF
S113008005900D92A630B107D9F721E0A6E0B1E0C2
S113009001C01D92A232B207E1F70E94CE000C9477
S11300A0CC050C940000CF92DF92EF92FF92CF9395
S11300B0DF93EAE7F0E0808180648083808186FDBD
S11300C0FDCFC0917800D091790060911E017091AC
S11300D01F0180E090E00E94EC016B017C01BE01F5
S11300E080E090E00E94EC0120911A0130911B0104
S11300F040911C0150911D010E947A029B01AC01A8
S1130100C701B6010E9451010E94BD0170931F01F5
S113011060931E01DF91CF91FF90EF90DF90CF901D
S1130120089582E480937C0085E880937A000895A2
S113013082E19AE79093890080938800EFE6F0E0EB
S1130140808182608083E1E8F0E080818B6080833D
S113015008959093C5008093C400E1ECF0E08081A1
S113016088618083E2ECF0E080818660808308957A
S1130170CF93DF93FC012081222369F0DC011196E7
S1130180E0ECF0E0C6ECD0E0908195FFFDCF288351
S11301902D912111F9CFDF91CF91089580E090E066
S11301A0A0E8BFE380931A0190931B01A0931C0164
S11301B0B0931D010E94910083E390E00E94A90086
S11301C00E94980078946894EE24E2F8F12C00E000
S11301D011E00F2EF4E1DF2EF02DC6E0D1E0F09215
S11301E02101E092200110921F0110921E01209122
S11301F0200130912101232BD1F720911E01309150
S11302001F01369527953695279530931F01209326
S11302101E0180911E0190911F019F938F931F9344
S11302200F931F92DF92DF93CF930E94E702CE01D8
S11302300E94B8008DB79EB708960FB6F8949EBF7B
S11302400FBE8DBFCCCF1F920F920FB60F92112409
S11302502F933F934F935F936F937F938F939F93CA
S1130260AF93BF93EF93FF930E94530080912001BB
S11302709091210101979093210180932001FF9196
S1130280EF91BF91AF919F918F917F916F915F910A
S11302904F913F912F910F900FBE0F901F90189583
S11302A05058BB27AA270E9468010C9440020E9460
S11302B0320238F00E94390220F039F49F3F19F4D9
S11302C026F40C942F020EF4E095E7FB0C9429021B
S11302D0E92F0E94510258F3BA1762077307840783
S11302E0950720F079F4A6F50C9473020EF4E095CA
S11302F00B2EBA2FA02D0B01B90190010C01CA01DC
S1130300A0011124FF27591B99F0593F50F4503E86
S113031068F11A16F040A22F232F342F4427585F78
S1130320F3CF469537952795A795F0405395C9F790
S11303307EF41F16BA0B620B730B840BBAF0915048
S1130340A1F0FF0FBB1F661F771F881FC2F70EC0E7
S1130350BA0F621F731F841F48F4879577956795BA
S1130360B795F7959E3F08F0B0CF9395880F08F0A6
S11303709927EE0F9795879508950E94590288F062
S11303809F5798F0B92F9927B751B0F0E1F0660F55
S1130390771F881F991F1AF0BA95C9F714C0B13096
S11303A091F00E947302B1E008950C947302672FD8
S11303B0782F8827B85F39F0B93FCCF386957795C5
S11303C06795B395D9F73EF49095809570956195AE
S11303D07F4F8F4F9F4F0895E89409C097FB3EF4D9
S11303E090958095709561957F4F8F4F9F4F99237E
S11303F0A9F0F92F96E9BB279395F69587957795FC
S11304006795B795F111F8CFFAF4BB0F11F460FFBB
S11304101BC06F5F7F4F8F4F9F4F16C0882311F013
S113042096E911C0772321F09EE8872F762F05C027
S1130430662371F096E8862F70E060E02AF09A95C2
S1130440660F771F881FDAF7880F9695879597F9B7
S1130450089597F99F6780E870E060E008959FEF42
S113046080EC089500240A94161617061806090647
S1130470089500240A941216130614060506089516
S1130480092E0394000C11F4882352F0BB0F40F49E
S1130490BF2B11F460FF04C06F5F7F4F8F4F9F4FDE
S11304A0089557FD9058440F551F59F05F3F71F060
S11304B04795880F97FB991F61F09F3F79F08795C7
S11304C00895121613061406551FF2CF4695F1DF50
S11304D008C0161617061806991FF1CF86957105E0
S11304E0610508940895E894BB2766277727CB0114
S11304F097F908950E948D020C9440020E943202E2
S113050038F00E94390220F0952311F00C9429024E
S11305100C942F0211240C9474020E94510270F363
S1130520959FC1F3950F50E0551F629FF001729F94
S1130530BB27F00DB11D639FAA27F00DB11DAA1FA3
S1130540649F6627B00DA11D661F829F2227B00DF0
S1130550A11D621F739FB00DA11D621F839FA00D7B
S1130560611D221F749F3327A00D611D231F849FCB
S1130570600D211D822F762F6A2F11249F57504022
S11305809AF0F1F088234AF0EE0FFF1FBB1F661F9D
S1130590771F881F91505040A9F79E3F510580F066
S11305A00C9429020C9474025F3FE4F3983ED4F354
S11305B0869577956795B795F795E7959F5FC1F70A
S11305C0FE2B880F911D9695879597F90895AEE0B7
S11305D0B0E0EDEEF2E00C94A3050D891E898F893D
S11305E0988D26E02C831A83098397FF02C080E04C
S11305F090E801979E838D83AE01455E5F4F698DC0
S11306007A8DCE0101960E9417034D815E8157FDBC
S11306100AC02F813885421753070CF49A01F80158
S1130620E20FF31F10822E96E4E00C94BF05ACE0B9
S1130630B0E0EDE1F3E00C9495057C016B018A01D7
S1130640FC0117821682838181FFBDC1CE01019610
S11306504C01F7019381F60193FD859193FF8191FC
S11306606F01882309F4ABC1853239F493FD859178
S113067093FF81916F01853229F4B70190E00E94C4
S1130680FF04E7CF512C312C20E02032A0F48B3230
S113069069F030F4803259F0833269F420612CC05F
S11306A08D3239F0803339F4216026C02260246011
S11306B023C0286021C027FD27C030ED380F3A3011
S11306C078F426FF06C0FAE05F9E300D1124532E05
S11306D013C08AE0389E300D1124332E20620CC0E2
S11306E08E3221F426FD6BC1206406C08C3611F4D1
S11306F0206802C0883641F4F60193FD859193FF8A
S113070081916F018111C1CF982F9F7D95549330B2
S113071028F40C5F1F4FFFE3F9830DC0833631F0DB
S1130720833771F0833509F05BC022C0F801808102
S113073089830E5F1F4F44244394512C540115C0E8
S11307403801F2E06F0E711CF801A080B18026FF21
S113075003C0652D70E002C06FEF7FEFC5012C87E9
S11307600E94F4042C0183012C852F77222E17C0BC
S11307703801F2E06F0E711CF801A080B18026FFF1
S113078003C0652D70E002C06FEF7FEFC5012C87B9
S11307900E94E9042C012C852068222E830123FC6D
S11307A01BC0832D90E048165906B0F4B70180E2CF
S11307B090E00E94FF043A94F4CFF50127FC859160
S11307C027FE81915F01B70190E00E94FF04311080
S11307D03A94F1E04F1A51084114510471F7E5C0FD
S11307E0843611F0893639F5F80127FF07C0608196
S11307F07181828193810C5F1F4F08C06081718178
S1130800072E000C880B990B0E5F1F4F2F76722E4C
S113081097FF09C090958095709561957F4F8F4F94
S11308209F4F2068722E2AE030E0A4010E94370511
S1130830A82EA81844C0853729F42F7EB22E2AE0AA
S113084030E025C0F22FF97FBF2E8F36C1F018F4A7
S1130850883579F0B4C0803719F0883721F0AFC0FB
S11308602F2F2061B22EB4FE0DC08B2D8460B82EC4
S113087009C024FF0AC09F2F9660B92E06C028E045
S113088030E005C020E130E002C020E132E0F801B0
S1130890B7FE07C060817181828193810C5F1F4F15
S11308A006C06081718180E090E00E5F1F4FA4015B
S11308B00E943705A82EA818FB2DFF777F2E76FE01
S11308C00BC0372D3E7FA51450F474FE0AC072FC91
S11308D008C0372D3E7E05C0BA2C372D03C0BA2C74
S11308E001C0B52C34FF0DC0FE01EA0DF11D80815D
S11308F0803311F4397E09C032FF06C0B394B39437
S113090004C0832F867809F0B39433FD13C030FFFD
S113091006C05A2CB31418F4530C5B18B32CB3143C
S113092068F4B70180E290E03C870E94FF04B3942E
S11309303C85F5CFB31410F43B1801C0312C34FFBF
S113094012C0B70180E390E03C870E94FF043C851D
S113095032FF17C031FD03C088E790E002C088E58C
S113096090E0B7010CC0832F867859F031FF02C0A4
S11309708BE201C080E237FD8DE2B70190E00E9476
S1130980FF04A51438F4B70180E390E00E94FF044B
S11309905A94F7CFAA94F401EA0DF11D8081B701AE
S11309A090E00E94FF04A110F5CF332009F451CE4A
S11309B0B70180E290E00E94FF043A94F6CFF70179
S11309C08681978102C08FEF9FEF2C96E2E10C9411
S11309D0B105FC010590615070400110D8F7809575
S11309E090958E0F9F1F0895FC01615070400190F7
S11309F00110D8F7809590958E0F9F1F08950F933F
S1130A001F93CF93DF93FB01238121FD03C08FEF5D
S1130A109FEF28C022FF16C046815781248135816B
S1130A204217530744F4A081B1819D012F5F3F4FCA
S1130A30318320838C93268137812F5F3F4F378307
S1130A40268310C0EB01092F182F0084F185E02DB7
S1130A500995892BE1F68E819F8101969F838E8370
S1130A60812F902FDF91CF911F910F910895FA015B
S1130A70AA27283051F1203181F1E8946F936E7FD9
S1130A806E5F7F4F8F4F9F4FAF4FB1E03ED0B4E0CA
S1130A903CD0670F781F891F9A1FA11D680F791F0B
S1130AA08A1F911DA11D6A0F711D811D911DA11D1C
S1130AB020D009F468943F912AE0269F112430192C
S1130AC0305D3193DEF6CF010895462F4770405DC7
S1130AD04193B3E00FD0C9F7F6CF462F4F70405D76
S1130AE04A3318F0495D31FD4052419302D0A9F7D1
S1130AF0EACFB4E0A6959795879577956795BA95CB
S1130B00C9F700976105710508959B01AC010A2E90
S1130B1006945795479537952795BA95C9F7620F67
S1130B20731F841F951FA01D08952F923F924F920B
S1130B305F926F927F928F929F92AF92BF92CF9269
S1130B40DF92EF92FF920F931F93CF93DF93CDB772
S1130B50DEB7CA1BDB0B0FB6F894DEBF0FBECDBFEA
S1130B6009942A88398848885F846E847D848C84BB
S1130B709B84AA84B984C884DF80EE80FD800C81C4
S1130B801B81AA81B981CE0FD11D0FB6F894DEBFA7
S10F0B900FBECDBFED010895F894FFCF17
S1090B9C2533640D0A007C
S9030000FC
