:100000000C9434000C943E000C943E000C943E0082
:100010000C943E000C943E000C943E000C943E0068
:100020000C943E000C943E000C943E000C943E0058
:100030000C943E000C943E000C943E000C943E0048
:100040000C943E000C943E000C943E000C943E0038
:100050000C943E000C943E000C943E000C943E0028
:100060000C943E000C943E0011241FBECFEFD8E04C
:10007000DEBFCDBF0E9482000C94CA000C94000029
:10008000E8E8F0E089E190E09183808387BD809388
:10009000B30080819181893F910558F108952FE740
:1000A00039EA83E0215030408040E1F700C0000091
:1000B0008081875E80838081893F88F3908387B5C4
:1000C000875E87BD87B5893F20F48081893F38F3FB
:1000D000F5CF97BD2D913C911197275E3F4F11961B
:1000E0003C932E932D913C911197293F310530F08F
:1000F0000895E3EBF0E099E1A8E8B0E087B5893F27
:1001000020F3E7CF80E48AB98AE084B983E884BD2C
:1001100091E8909380008093B00089E08093810003
:1001200081E085BD8093B10001E810E0C1EBD0E033
:10013000FF24F3946894DD24D3F80F2EF9E0EF2E1A
:10014000F02D22C00E9440008881873020F48881F1
:100150008F5F888301C0188288818111F3CFF88274
:1001600085B5853020F485B58F5F85BD01C015BC90
:1001700085B58111F1CFF5BC85B58D3020F485B5FD
:100180008F5F85BD01C0D5BCF8018081883081F7C3
:08019000E082FACFF894FFCFE2
:00000001FF
